{
  "_format": "hh-sol-artifact-1",
  "contractName": "CampaignFactory",
  "sourceName": "contracts/CampaignFactory.sol",
  "abi": [
    {
      "inputs": [],
      "stateMutability": "nonpayable",
      "type": "constructor"
    },
    {
      "inputs": [],
      "name": "NotOwner",
      "type": "error"
    },
    {
      "anonymous": false,
      "inputs": [
        {
          "indexed": true,
          "internalType": "address",
          "name": "campaignAddress",
          "type": "address"
        },
        {
          "indexed": true,
          "internalType": "address",
          "name": "organizer",
          "type": "address"
        },
        {
          "indexed": true,
          "internalType": "address",
          "name": "createdBy",
          "type": "address"
        },
        {
          "indexed": false,
          "internalType": "uint256",
          "name": "timestamp",
          "type": "uint256"
        }
      ],
      "name": "CampaignCreated",
      "type": "event"
    },
    {
      "inputs": [
        {
          "internalType": "address",
          "name": "organizer",
          "type": "address"
        }
      ],
      "name": "createCampaign",
      "outputs": [
        {
          "internalType": "address",
          "name": "campaignAddr",
          "type": "address"
        }
      ],
      "stateMutability": "nonpayable",
      "type": "function"
    },
    {
      "inputs": [],
      "name": "owner",
      "outputs": [
        {
          "internalType": "address",
          "name": "",
          "type": "address"
        }
      ],
      "stateMutability": "view",
      "type": "function"
    },
    {
      "inputs": [
        {
          "internalType": "address",
          "name": "newOwner",
          "type": "address"
        }
      ],
      "name": "transferOwnership",
      "outputs": [],
      "stateMutability": "nonpayable",
      "type": "function"
    }
  ],
  "bytecode": "0x6080604052348015600f57600080fd5b50336000806101000a81548173ffffffffffffffffffffffffffffffffffffffff021916908373ffffffffffffffffffffffffffffffffffffffff160217905550610d138061005f6000396000f3fe608060405234801561001057600080fd5b50600436106100415760003560e01c80634b1d270f146100465780638da5cb5b14610076578063f2fde38b14610094575b600080fd5b610060600480360381019061005b91906103c0565b6100b0565b60405161006d91906103fc565b60405180910390f35b61007e6101f5565b60405161008b91906103fc565b60405180910390f35b6100ae60048036038101906100a991906103c0565b610219565b005b60008060009054906101000a900473ffffffffffffffffffffffffffffffffffffffff1673ffffffffffffffffffffffffffffffffffffffff163373ffffffffffffffffffffffffffffffffffffffff1614610138576040517f30cd747100000000000000000000000000000000000000000000000000000000815260040160405180910390fd5b60008260405161014790610350565b61015191906103fc565b604051809103906000f08015801561016d573d6000803e3d6000fd5b5090508091503373ffffffffffffffffffffffffffffffffffffffff168373ffffffffffffffffffffffffffffffffffffffff168373ffffffffffffffffffffffffffffffffffffffff167fcb882a6cb3252a3c2e418ce65435aa7d1862e4c91d4d957100a6839d5a468241426040516101e79190610430565b60405180910390a450919050565b60008054906101000a900473ffffffffffffffffffffffffffffffffffffffff1681565b60008054906101000a900473ffffffffffffffffffffffffffffffffffffffff1673ffffffffffffffffffffffffffffffffffffffff163373ffffffffffffffffffffffffffffffffffffffff161461029e576040517f30cd747100000000000000000000000000000000000000000000000000000000815260040160405180910390fd5b600073ffffffffffffffffffffffffffffffffffffffff168173ffffffffffffffffffffffffffffffffffffffff160361030d576040517f08c379a0000000000000000000000000000000000000000000000000000000008152600401610304906104a8565b60405180910390fd5b806000806101000a81548173ffffffffffffffffffffffffffffffffffffffff021916908373ffffffffffffffffffffffffffffffffffffffff16021790555050565b610815806104c983390190565b600080fd5b600073ffffffffffffffffffffffffffffffffffffffff82169050919050565b600061038d82610362565b9050919050565b61039d81610382565b81146103a857600080fd5b50565b6000813590506103ba81610394565b92915050565b6000602082840312156103d6576103d561035d565b5b60006103e4848285016103ab565b91505092915050565b6103f681610382565b82525050565b600060208201905061041160008301846103ed565b92915050565b6000819050919050565b61042a81610417565b82525050565b60006020820190506104456000830184610421565b92915050565b600082825260208201905092915050565b7f6e65774f776e65723d3000000000000000000000000000000000000000000000600082015250565b6000610492600a8361044b565b915061049d8261045c565b602082019050919050565b600060208201905081810360008301526104c181610485565b905091905056fe60c060405234801561001057600080fd5b5060405161081538038061081583398181016040528101906100329190610172565b600073ffffffffffffffffffffffffffffffffffffffff168173ffffffffffffffffffffffffffffffffffffffff16036100a1576040517f08c379a0000000000000000000000000000000000000000000000000000000008152600401610098906101fc565b60405180910390fd5b8073ffffffffffffffffffffffffffffffffffffffff1660808173ffffffffffffffffffffffffffffffffffffffff16815250503373ffffffffffffffffffffffffffffffffffffffff1660a08173ffffffffffffffffffffffffffffffffffffffff16815250505061021c565b600080fd5b600073ffffffffffffffffffffffffffffffffffffffff82169050919050565b600061013f82610114565b9050919050565b61014f81610134565b811461015a57600080fd5b50565b60008151905061016c81610146565b92915050565b6000602082840312156101885761018761010f565b5b60006101968482850161015d565b91505092915050565b600082825260208201905092915050565b7f6f7267616e697a65723d30000000000000000000000000000000000000000000600082015250565b60006101e6600b8361019f565b91506101f1826101b0565b602082019050919050565b60006020820190508181036000830152610215816101d9565b9050919050565b60805160a0516105bf610256600039600061037a01526000818161015201528181610218015281816102e2015261035601526105bf6000f3fe6080604052600436106100435760003560e01c80633ccfd60b146100d957806361203265146100f0578063c45a01551461011b578063ed88c68e14610146576100d4565b366100d45760003403610082576040517fc6e0724200000000000000000000000000000000000000000000000000000000815260040160405180910390fd5b3373ffffffffffffffffffffffffffffffffffffffff167f4b0304ab2f313234b1cea012339c8f8c3bf2c8bb357d81a579cfdb35d2e3d03034426040516100ca929190610441565b60405180910390a2005b600080fd5b3480156100e557600080fd5b506100ee610150565b005b3480156100fc57600080fd5b50610105610354565b60405161011291906104ab565b60405180910390f35b34801561012757600080fd5b50610130610378565b60405161013d91906104ab565b60405180910390f35b61014e61039c565b005b7f000000000000000000000000000000000000000000000000000000000000000073ffffffffffffffffffffffffffffffffffffffff163373ffffffffffffffffffffffffffffffffffffffff16146101d5576040517f8f40e9c400000000000000000000000000000000000000000000000000000000815260040160405180910390fd5b600047905060008103610214576040517fc2caa2a600000000000000000000000000000000000000000000000000000000815260040160405180910390fd5b60007f000000000000000000000000000000000000000000000000000000000000000073ffffffffffffffffffffffffffffffffffffffff168260405161025a906104f7565b60006040518083038185875af1925050503d8060008114610297576040519150601f19603f3d011682016040523d82523d6000602084013e61029c565b606091505b50509050806102e0576040517f08c379a00000000000000000000000000000000000000000000000000000000081526004016102d790610569565b60405180910390fd5b7f000000000000000000000000000000000000000000000000000000000000000073ffffffffffffffffffffffffffffffffffffffff167f92ccf450a286a957af52509bc1c9939d1a6a481783e142e41e2499f0bb66ebc68342604051610348929190610441565b60405180910390a25050565b7f000000000000000000000000000000000000000000000000000000000000000081565b7f000000000000000000000000000000000000000000000000000000000000000081565b600034036103d6576040517fc6e0724200000000000000000000000000000000000000000000000000000000815260040160405180910390fd5b3373ffffffffffffffffffffffffffffffffffffffff167f4b0304ab2f313234b1cea012339c8f8c3bf2c8bb357d81a579cfdb35d2e3d030344260405161041e929190610441565b60405180910390a2565b6000819050919050565b61043b81610428565b82525050565b60006040820190506104566000830185610432565b6104636020830184610432565b9392505050565b600073ffffffffffffffffffffffffffffffffffffffff82169050919050565b60006104958261046a565b9050919050565b6104a58161048a565b82525050565b60006020820190506104c0600083018461049c565b92915050565b600081905092915050565b50565b60006104e16000836104c6565b91506104ec826104d1565b600082019050919050565b6000610502826104d4565b9150819050919050565b600082825260208201905092915050565b7f7472616e73666572206661696c65640000000000000000000000000000000000600082015250565b6000610553600f8361050c565b915061055e8261051d565b602082019050919050565b6000602082019050818103600083015261058281610546565b905091905056fea26469706673582212204e2e1982717bb6c6c9efacfb6a2ca3938b8744dd81bfbd21465ccde3cb92cf8164736f6c634300081c0033a2646970667358221220407cdbf9df7d39682c28bcaabc6d6fdea3c76dbec9779f822d296c2b1b571d0464736f6c634300081c0033",
  "linkReferences": {},
  "deployedLinkReferences": {}
}