{
  "_format": "hh-sol-artifact-1",
  "contractName": "CampaignDonation",
  "sourceName": "contracts/CampaignDonation.sol",
  "abi": [
    {
      "inputs": [
        {
          "internalType": "address",
          "name": "_organizer",
          "type": "address"
        }
      ],
      "stateMutability": "nonpayable",
      "type": "constructor"
    },
    {
      "inputs": [],
      "name": "NoBalance",
      "type": "error"
    },
    {
      "inputs": [],
      "name": "NotOrganizer",
      "type": "error"
    },
    {
      "inputs": [],
      "name": "ZeroDonation",
      "type": "error"
    },
    {
      "anonymous": false,
      "inputs": [
        {
          "indexed": true,
          "internalType": "address",
          "name": "donor",
          "type": "address"
        },
        {
          "indexed": false,
          "internalType": "uint256",
          "name": "amount",
          "type": "uint256"
        },
        {
          "indexed": false,
          "internalType": "uint256",
          "name": "timestamp",
          "type": "uint256"
        }
      ],
      "name": "DonationReceived",
      "type": "event"
    },
    {
      "anonymous": false,
      "inputs": [
        {
          "indexed": true,
          "internalType": "address",
          "name": "to",
          "type": "address"
        },
        {
          "indexed": false,
          "internalType": "uint256",
          "name": "amount",
          "type": "uint256"
        },
        {
          "indexed": false,
          "internalType": "uint256",
          "name": "timestamp",
          "type": "uint256"
        }
      ],
      "name": "Withdrawn",
      "type": "event"
    },
    {
      "inputs": [],
      "name": "donate",
      "outputs": [],
      "stateMutability": "payable",
      "type": "function"
    },
    {
      "inputs": [],
      "name": "factory",
      "outputs": [
        {
          "internalType": "address",
          "name": "",
          "type": "address"
        }
      ],
      "stateMutability": "view",
      "type": "function"
    },
    {
      "inputs": [],
      "name": "organizer",
      "outputs": [
        {
          "internalType": "address",
          "name": "",
          "type": "address"
        }
      ],
      "stateMutability": "view",
      "type": "function"
    },
    {
      "inputs": [],
      "name": "withdraw",
      "outputs": [],
      "stateMutability": "nonpayable",
      "type": "function"
    },
    {
      "stateMutability": "payable",
      "type": "receive"
    }
  ],
  "bytecode": "0x60c060405234801561001057600080fd5b5060405161081538038061081583398181016040528101906100329190610172565b600073ffffffffffffffffffffffffffffffffffffffff168173ffffffffffffffffffffffffffffffffffffffff16036100a1576040517f08c379a0000000000000000000000000000000000000000000000000000000008152600401610098906101fc565b60405180910390fd5b8073ffffffffffffffffffffffffffffffffffffffff1660808173ffffffffffffffffffffffffffffffffffffffff16815250503373ffffffffffffffffffffffffffffffffffffffff1660a08173ffffffffffffffffffffffffffffffffffffffff16815250505061021c565b600080fd5b600073ffffffffffffffffffffffffffffffffffffffff82169050919050565b600061013f82610114565b9050919050565b61014f81610134565b811461015a57600080fd5b50565b60008151905061016c81610146565b92915050565b6000602082840312156101885761018761010f565b5b60006101968482850161015d565b91505092915050565b600082825260208201905092915050565b7f6f7267616e697a65723d30000000000000000000000000000000000000000000600082015250565b60006101e6600b8361019f565b91506101f1826101b0565b602082019050919050565b60006020820190508181036000830152610215816101d9565b9050919050565b60805160a0516105bf610256600039600061037a01526000818161015201528181610218015281816102e2015261035601526105bf6000f3fe6080604052600436106100435760003560e01c80633ccfd60b146100d957806361203265146100f0578063c45a01551461011b578063ed88c68e14610146576100d4565b366100d45760003403610082576040517fc6e0724200000000000000000000000000000000000000000000000000000000815260040160405180910390fd5b3373ffffffffffffffffffffffffffffffffffffffff167f4b0304ab2f313234b1cea012339c8f8c3bf2c8bb357d81a579cfdb35d2e3d03034426040516100ca929190610441565b60405180910390a2005b600080fd5b3480156100e557600080fd5b506100ee610150565b005b3480156100fc57600080fd5b50610105610354565b60405161011291906104ab565b60405180910390f35b34801561012757600080fd5b50610130610378565b60405161013d91906104ab565b60405180910390f35b61014e61039c565b005b7f000000000000000000000000000000000000000000000000000000000000000073ffffffffffffffffffffffffffffffffffffffff163373ffffffffffffffffffffffffffffffffffffffff16146101d5576040517f8f40e9c400000000000000000000000000000000000000000000000000000000815260040160405180910390fd5b600047905060008103610214576040517fc2caa2a600000000000000000000000000000000000000000000000000000000815260040160405180910390fd5b60007f000000000000000000000000000000000000000000000000000000000000000073ffffffffffffffffffffffffffffffffffffffff168260405161025a906104f7565b60006040518083038185875af1925050503d8060008114610297576040519150601f19603f3d011682016040523d82523d6000602084013e61029c565b606091505b50509050806102e0576040517f08c379a00000000000000000000000000000000000000000000000000000000081526004016102d790610569565b60405180910390fd5b7f000000000000000000000000000000000000000000000000000000000000000073ffffffffffffffffffffffffffffffffffffffff167f92ccf450a286a957af52509bc1c9939d1a6a481783e142e41e2499f0bb66ebc68342604051610348929190610441565b60405180910390a25050565b7f000000000000000000000000000000000000000000000000000000000000000081565b7f000000000000000000000000000000000000000000000000000000000000000081565b600034036103d6576040517fc6e0724200000000000000000000000000000000000000000000000000000000815260040160405180910390fd5b3373ffffffffffffffffffffffffffffffffffffffff167f4b0304ab2f313234b1cea012339c8f8c3bf2c8bb357d81a579cfdb35d2e3d030344260405161041e929190610441565b60405180910390a2565b6000819050919050565b61043b81610428565b82525050565b60006040820190506104566000830185610432565b6104636020830184610432565b9392505050565b600073ffffffffffffffffffffffffffffffffffffffff82169050919050565b60006104958261046a565b9050919050565b6104a58161048a565b82525050565b60006020820190506104c0600083018461049c565b92915050565b600081905092915050565b50565b60006104e16000836104c6565b91506104ec826104d1565b600082019050919050565b6000610502826104d4565b9150819050919050565b600082825260208201905092915050565b7f7472616e73666572206661696c65640000000000000000000000000000000000600082015250565b6000610553600f8361050c565b915061055e8261051d565b602082019050919050565b6000602082019050818103600083015261058281610546565b905091905056fea26469706673582212204e2e1982717bb6c6c9efacfb6a2ca3938b8744dd81bfbd21465ccde3cb92cf8164736f6c634300081c0033",
  "linkReferences": {},
  "deployedLinkReferences": {}
}